:0400000007EF00F016
:0A0008003882E3ED04F06AEF06F021
:100600000001000A006400E8031027302564003A66
:100610000000000E2A6E020E296E4DEC06F0000955
:10062000D8A4FBD70B0E2EEC06F04DEC06F000091B
:10063000D8A4FBD70D0E2EEC06F04DEC06F0000909
:10064000D8A4FBD7010E9FEC05F033BE06D0335083
:1006500013E10A0E325CD8B00FD02B0E1B6E000EC9
:100660001C6E0B0E1D6E060E1E6E32C01FF033C0C8
:1006700020F0D8EC03F00ED02B0E1B6E000E1C6E7B
:100680000C0E1D6E060E1E6E32C01FF033C020F021
:10069000D8EC03F02B0E106E000E116E9FEC06F0DE
:1006A0004DEC06F00009D8A4FBD7030E9FEC05F033
:1006B0000F0E106E060E116E85EC06F04DEC06F076
:1006C0000009D8A4FBD7040E9FEC05F037BE06D076
:1006D000375013E10A0E365CD8B00FD02B0E1B6ECC
:1006E000000E1C6E0B0E1D6E060E1E6E36C01FF029
:1006F00037C020F0D8EC03F00ED02B0E1B6E000E8E
:100700001C6E0C0E1D6E060E1E6E36C01FF037C01E
:1007100020F0D8EC03F02B0E106E000E116E9FEC43
:1007200006F04DEC06F00009D8A4FBD7060E9FECAE
:1007300005F00F0E106E060E116E85EC06F04DECF6
:1007400006F00009D8A4FBD7070E9FEC05F035BED4
:1007500006D0355013E10A0E345CD8B00FD02B0E02
:100760001B6E000E1C6E0B0E1D6E060E1E6E34C030
:100770001FF035C020F0D8EC03F00ED02B0E1B6E0E
:10078000000E1C6E0C0E1D6E060E1E6E34C01FF089
:1007900035C020F0D8EC03F02B0E106E000E116E59
:1007A0009FEC06F04DEC06F00009D8B41200FAD721
:1007B0001F0E226E000E236E8CD0250E2818D8B482
:1007C00009D01BC0D9FF1CC0DAFF28C0DFFF1B4ABD
:1007D0001C2A7FD0000E246E1DC0F6FF1EC0F7FF3E
:1007E0001D4A1E2A0800F5CF28F02850000AD8B468
:1007F0007CD0640AD8B403D00D0AD8A46AD022C031
:10080000D9FF23C0DAFFDECF26F0DDCF27F0020EBE
:100810002226000E232227AE06D0030E2412266CB9
:10082000271ED8B0272A010E286E050E2818D8B426
:1008300012D02850020D010EF324F66E060EF4209D
:10084000F76E0900F550265C0900F5502758D8A02E
:1008500002D0282AEAD724C021F0030E2116D8B4EA
:1008600008D01BC0D9FF1CC0DAFF2D0EDF6E1B4A5B
:100870001C2A28C025F029D02550020D010EF32492
:10088000F66E060EF420F76E0900F5CF11F00A009F
:10089000F5CF12F026C00FF027C010F076EC05F06F
:1008A0000FC016F010C017F0000E196E0A0E186E69
:1008B000EEEC05F01650300F286E1BC0D9FF1CC09F
:1008C000DAFF28C0DFFF1B4A1C2A25062528D8A4EA
:1008D000D3D71DC0F6FF1EC0F7FF1D4A1E2A080011
:1008E000F5CF28F02850D8A468D71BC0D9FF1CC06A
:1008F000DAFF000EDF6E1200236EF00E83160F0E6D
:100900009512959A9598959C8C9A8C988C9CE1EC74
:1009100006F0F00E9516F00E8316030E83128C8CE3
:10092000C9EC06F08C9CD6EC06F0F00E8316030E94
:1009300083128C8CC9EC06F08C9CD6EC06F0F00E81
:100940008316030E83128C8CC9EC06F08C9CD6ECBB
:1009500006F0F00E831683828C8CC9EC06F08C9C1A
:100960000F0E95124DEC06F00009D8A4FBD72350CA
:100970002EEC06F04DEC06F00009D8A4FBD7080ECB
:100980002EEC06F04DEC06F00009D8A4FBD70F0EB4
:100990002EEC06F04DEC06F00009D8A4FBD7010EB2
:1009A0002EEC06F04DEC06F00009D8A4FBD7060E9D
:1009B0002EEC06F04DEC06F00009D8A4FBD7000E93
:1009C0009FEC05F012000600FACF01F0FBCF02F019
:1009D000E9CF03F0EACF04F0E1CF05F0E2CF06F073
:1009E000D9CF07F0DACF08F0F3CF09F0F4CF0AF04F
:1009F000F6CF0BF0F7CF0CF0F8CF0DF0F5CF0EF0EF
:100A00004BEC05F00EC0F5FF0DC0F8FF0CC0F7FF72
:100A10000BC0F6FF0AC0F4FF09C0F3FF08C0DAFFFD
:100A200007C0D9FF06C0E2FF05C0E1FF04C0EAFF2E
:100A300003C0E9FF02C0FBFF01C0FAFF38921100BA
:100A4000000E176E000E186E000E196E000E1A6E54
:100A50000FA008D013501726145018221550192231
:100A600016501A22D8901336143615361636D890EA
:100A70001232113210320F320F50101011101210AA
:100A8000D8A4E6D717C00FF018C010F019C011F0A5
:100A90001AC012F01200344A352A3C0E34183510B0
:100AA000D8A406D0000E356E000E346E364A372AB2
:100AB0003C0E36183710D8A406D0000E376E000E44
:100AC000366E324A332A180E32183310D8A404D0A6
:100AD000000E336E000E326E000E316E010E306E5F
:100AE000800ECF6E000ECE6E9E901200000E146E21
:100AF000000E136E11501210D8B41CD0010E156EDA
:100B000004D0D89011361236152A12AEFAD7D890E2
:100B10001336143611500F5C12501058D8A005D05F
:100B200011500F5E1250105A1380D89012321132A9
:100B3000152EEDD713C00FF014C010F01200126E76
:100B4000F00E9516F00E831612500F6E106A0F8E6F
:100B5000040E116E103410320F32112EFBD70F50CD
:100B60000F0B83128C9A8C98C9EC06F08C8CC9EC14
:100B700006F08C9CF00E831612500F0B8312C9ECFA
:100B800006F08C8CC9EC06F08C9C0F0E95121200AE
:100B90001BC01FF01CC020F01DC021F01EC022F0A1
:100BA0001B06000E1C5A1D5A1E5A1FC00FF020C0F3
:100BB00010F021C011F022C012F0E80E136E030EE7
:100BC000146E000E156E000E166E20EC05F00F5020
:100BD000101011101210D8B41200DAD718501910D2
:100BE000D8B418D0010E1A6E04D0D8901836193621
:100BF0001A2A19AEFAD71850165C19501758D8A0EF
:100C000004D01850165E1950175AD890193218325D
:100C10001A2EF1D716C016F017C017F012000F6E7B
:100C2000F00E9516F00E83160F380F0B0F0B831274
:100C30008C888C9AC9EC06F08C8CC9EC06F08C9CE4
:100C4000F00E83160F500F0B8312C9EC06F08C8C3C
:100C5000C9EC06F08C9C0F0E951212000F6EF00E70
:100C60009516F00E83160F380F0B0F0B83128C9A0C
:100C70008C98C9EC06F08C8CC9EC06F08C9CF00EBC
:100C800083160F500F0B8312C9EC06F08C8CC9EC45
:100C900006F08C9C0F0E951212008C8A8C98C9EC71
:100CA00006F08C8CC9EC06F083A60AD08C9CC9ECAB
:100CB00006F08C8CC9EC06F08C9C8C9A010E12000C
:100CC0008C9CC9EC06F08C8CC9EC06F08C9C8C9A40
:100CD000000E1200020EF66E0E0EF76E000EF86E8B
:100CE00000EE34F010EE04F00900F5CFEEFFE55011
:100CF000E150FAE1336A326A316A306A38903892E8
:100D0000000EF86E0001B6EF06F00FD04DEC06F0C5
:100D10000009D8A4FBD710C0F6FF11C0F7FF0800E8
:100D2000F5500FEC06F0104A112A10C0F6FF11C062
:100D3000F7FF0800F5500009D8B41200E7D70ED02D
:100D40004DEC06F00009D8A4FBD710C0D9FF11C0A4
:100D5000DAFFDF500FEC06F0104A112A10C0D9FF5D
:100D600011C0DAFFDF50D8B41200EAD7FEEC06F06B
:100D7000F6EC06F0ECEC06F009EC03F03050311024
:100D8000D8B4FCD709EC03F0000E316E000E306EC3
:100D9000F5D700F000F000F000F000F000F000F0F7
:100DA00000F000F000F000F000F01200140E1B6ED6
:100DB000000E1C6E000E1D6E000E1E6EC8EC05F0BF
:100DC00012003C0E1B6E000E1C6E000E1D6E000EFF
:100DD0001E6EC8EC05F012000E0ECD6E800ECF6EAA
:100DE000000ECE6E9E909D80CD8012000E0EC16EC4
:100DF0008C8E959E280E7CEC04F01200D08EF28E24
:060E0000120032003B006D
:020000040020DA
:08000000FFFFFFFFFFFFFFFF00
:020000040030CA
:0E000000FF071F1EFF8181FF0FC00FE00F40A2
:00000001FF
