:0400000007EF00F016
:0A0008007F82D2ED1AF081EF1AF0AA
:100600000001000A006400E8031027256420256427
:10061000202564202564202564202564202564206D
:100620002564202564202564202564202564202558
:100630006420256420256420256420256420256409
:10064000202564202564202564202564202564005D
:10065000417373657274696F6E206661696C65645D
:100660003A202573206C696E652025643A20222586
:1006700073220A006F7065723D3D30784644006F0A
:10068000706572213D30784645006F7065723D3D62
:100690003078464500286E756C6C29006D61696E76
:1006A0002E6300313D3D3000302564002020006D78
:1006B0004D0000003A00410043004C00540061002E
:0106C0000039
:1006C2008AEC1FF00009D8A4FBD70B0EEAEC1EF04F
:1006D2000201635102016411D8A41DD036C2A9F2ED
:1006E20037C2AAF234C2A7F235C2A8F232C2A5F2C8
:1006F20033C2A6F2A3C29FF2A4C2A0F2A1C29DF28B
:10070200A2C29EF28AEC1FF00009D8A4FBD70D0EFC
:10071200EAEC1EF008D08AEC1FF00009D8A4FBD73F
:100722000F0EEAEC1EF08AEC1FF00009D8A4FBD7EA
:10073200010E88EC1DF0B20E0201696F0201AABF20
:1007420008D00201AA5118E10A0E0201A95DD8B02F
:1007520013D0690E0201576F020E0201586FA80EE4
:100762000201596F060E02015A6FA9C25BF2AAC2B8
:100772005CF276EC1EF012D0690E0201576F020E87
:100782000201586F4D0E0201596F060E02015A6F97
:10079200A9C25BF2AAC25CF276EC1EF0690E0201FB
:1007A2003D6F020E02013E6F31EC20F08AEC1FF029
:1007B2000009D8A4FBD7030E88EC1DF0B40E020189
:1007C2003D6F060E02013E6FE0EC1FF08AEC1FF057
:1007D2000009D8A4FBD7040E88EC1DF0B20E02016A
:1007E200696F0201A8BF08D00201A85118E10A0EE0
:1007F2000201A75DD8B013D0690E0201576F020E35
:100802000201586FA80E0201596F060E02015A6FBB
:10081200A7C25BF2A8C25CF276EC1EF012D0690E9F
:100822000201576F020E0201586F4D0E0201596FFD
:10083200060E02015A6FA7C25BF2A8C25CF276EC06
:100842001EF0690E02013D6F020E02013E6F31EC95
:1008520020F08AEC1FF00009D8A4FBD7060E88EC22
:100862001DF0B40E02013D6F060E02013E6FE0EC78
:100872001FF08AEC1FF00009D8A4FBD7070E88EC02
:100882001DF0B20E0201696F0201A6BF08D002017B
:10089200A65118E10A0E0201A55DD8B013D0690E67
:1008A2000201576F020E0201586FA80E0201596F22
:1008B200060E02015A6FA5C25BF2A6C25CF276EC8A
:1008C2001EF012D0690E0201576F020E0201586F1C
:1008D2004D0E0201596F060E02015A6FA5C25BF25C
:1008E200A6C25CF276EC1EF0690E02013D6F020EAA
:1008F20002013E6F31EC20F08AEC1FF00009D8A40F
:10090200FBD70A0E88EC1DF0020163050201641197
:10091200D8A408D0AF0E02013D6F060E02013E6F51
:10092200E0EC1FF0AC0E02013D6F060E02013E6FBD
:10093200E0EC1FF08AEC1FF00009D8A4FBD70C0EE4
:1009420088EC1DF002019B0502019C11D8B406D06F
:100952000201630502016411D8A409D0BC0E020190
:100962003D6F060E02013E6FE0EC1FF008D0AD0EA7
:1009720002013D6F060E02013E6FE0EC1FF08AECB1
:100982001FF00009D8A4FBD78AEC1FF00009D8A4F5
:10099200FBD70D0E88EC1DF00201990502019A1198
:1009A200D8B406D00201630502016411D8A409D0AB
:1009B200BA0E02013D6F060E02013E6FE0EC1FF01F
:1009C20008D0AD0E02013D6F060E02013E6FE0EC53
:1009D2001FF08AEC1FF00009D8A4FBD70F0E88EC99
:1009E2001DF00201AB510201AC11D8B409D0B60E10
:1009F20002013D6F060E02013E6FE0EC1FF008D0CF
:100A0200BE0E02013D6F060E02013E6FE0EC1FF0CA
:100A12008AEC1FF00009D8A4FBD7410E88EC1DF028
:100A2200B20E0201696FA1D002019151020192112D
:100A3200D8A404D0A3C29FF2A4C2A0F20201A0BF14
:100A420008D00201A05118E10A0E02019F5DD8B040
:100A520013D0690E0201576F020E0201586FA80EE1
:100A62000201596F060E02015A6F9FC25BF2A0C2C9
:100A72005CF276EC1EF08BD0690E0201576F020E0B
:100A82000201586F4D0E0201596F060E02015A6F94
:100A92009FC25BF2A0C25CF276EC1EF078D0A3C2D9
:100AA2009FF2A4C2A0F202013BBF08D002013B5157
:100AB20018E10A0E02013A5DD8B013D0690E0201A4
:100AC200576F020E0201586FA80E0201596F060EEF
:100AD20002015A6F3AC25BF23BC25CF276EC1EF044
:100AE20056D0690E0201576F020E0201586F4D0E69
:100AF2000201596F060E02015A6F3AC25BF23BC203
:100B02005CF276EC1EF043D00201A0BF08D00201D5
:100B1200A05118E10A0E02019F5DD8B013D0690EF0
:100B22000201576F020E0201586FA80E0201596F9F
:100B3200060E02015A6F9FC25BF2A0C25CF276EC13
:100B42001EF025D0690E0201576F020E0201586F86
:100B52004D0E0201596F060E02015A6F9FC25BF2DF
:100B6200A0C25CF276EC1EF012D065C267F266C2D9
:100B720068F202016851000AD8A4C6D7020167517F
:100B8200040AD8B451D7010AD8B489D7BDD7690E9F
:100B920002013D6F020E02013E6F31EC20F08AEC41
:100BA2001FF00009D8A4FBD7440E88EC1DF0B80E44
:100BB20002013D6F060E02013E6FE0EC1FF08AEC6F
:100BC2001FF00009D8A4FBD74D0E88EC1DF0BA0E19
:100BD20002013D6F060E02013E6FE0EC1FF08AEC4F
:100BE2001FF00009D8A4FBD74F0E88EC1DF0B20EFF
:100BF2000201696F60D00201915102019211D8A4E1
:100C020004D0A1C29DF2A2C29EF2690E0201576FE8
:100C1200020E0201586F4D0E0201596F060E0201BB
:100C22005A6F9DC25BF29EC25CF276EC1EF058D007
:100C32000201915102019211D8A404D0A1C29DF2E5
:100C4200A2C29EF2690E0201576F020E0201586F94
:100C52004D0E0201596F060E02015A6F9DC25BF2E0
:100C62009EC25CF276EC1EF03BD0690E0201576F19
:100C7200020E0201586F4D0E0201596F060E02015B
:100C82005A6F38C25BF239C25CF276EC1EF028D0A1
:100C9200690E0201576F020E0201586F4D0E0201DA
:100CA200596F060E02015A6F9DC25BF29EC25CF240
:100CB20076EC1EF015D065C267F266C268F20201D8
:100CC2006851000AD8A4E4D702016751040AD8B4D3
:100CD20092D7010AD8B4ACD7030AD8B4C6D7D8D7AA
:100CE200690E02013D6F020E02013E6F31EC20F0EF
:100CF2008AEC1FF00009D8B421D0FAD7020E88EC92
:100D02001DF01200050E88EC1DF01200080E88EC92
:100D12001DF012000A0E88EC1DF012000B0E88EC7A
:100D22001DF012000C0E88EC1DF012000D0E88EC66
:100D32001DF012000F0E88EC1DF0120065C267F262
:100D420066C268F202016851000AD8A412000201C8
:100D52006751000AD8B4D2D7010AD8B4D3D7030A4C
:100D6200D8B4D4D7010AD8B4D5D7070AD8B4D6D7BD
:100D7200010AD8B4D7D7030AD8B4D8D7010AD8A45D
:100D82001200D8D7B4D2000E1C6E010E1D6E3E0E9C
:100D92001E6E060E1F6E000E216EFD0E206E000EE0
:100DA200236EC00E226E56C0D9FF57C0DAFFDECFC7
:100DB20024F0DDCF25F020EE02F05650D926575010
:100DC200DA22DECF26F0DDCF27F020EE04F05650F7
:100DD200D9265750DA22DECF28F0DDCF29F0000ED7
:100DE2002B6EFE0E2A6E0CEC1FF0AED2000E1C6EA5
:100DF200010E1D6E440E1E6E060E1F6E000E216E3B
:100E0200FD0E206E000E236EC10E226E000E256EA8
:100E1200000E246E000E276EFE0E266E0CEC1FF0E6
:100E220093D2000E1C6E010E1D6E410E1E6E060E3A
:100E32001F6E000E216EFD0E206E000E236EC20E7E
:100E4200226E56C0D9FF57C0DAFFDECF24F0DDCFC5
:100E520025F020EE02F05650D9265750DA22DECF86
:100E620026F0DDCF27F0000E296EFE0E286E0CEC68
:100E72001FF06AD2000E1C6E010E1D6E3E0E1E6E1B
:100E8200060E1F6E000E216EFD0E206E000E236EEA
:100E9200C30E226E56C0D9FF57C0DAFFDECF24F050
:100EA200DDCF25F020EE02F05650D9265750DA2237
:100EB200DECF26F0DDCF27F020EE04F05650D92603
:100EC2005750DA22DECF28F0DDCF29F0000E2B6E4C
:100ED200FE0E2A6E0CEC1FF037D2000E1C6E010EB5
:100EE2001D6E440E1E6E060E1F6E000E216EFD0E4E
:100EF200206E000E236EC40E226E000E256E000EB2
:100F0200246E000E276EFE0E266E0CEC1FF01CD215
:100F1200000E1C6E010E1D6E440E1E6E060E1F6E1E
:100F2200000E216EFD0E206E000E236EC50E226E87
:100F3200000E256E000E246E000E276EFE0E266E2B
:100F42000CEC1FF001D2000E1C6E010E1D6E3E0E47
:100F52001E6E060E1F6E000E216EFD0E206E000E1E
:100F6200236EC60E226E56C0D9FF57C0DAFFDECFFF
:100F720024F0DDCF25F020EE02F05650D92657504E
:100F8200DA22DECF26F0DDCF27F020EE04F0565035
:100F9200D9265750DA22DECF28F0DDCF29F0000E15
:100FA2002B6EFE0E2A6E0CEC1FF0CED1000E1C6EC4
:100FB200010E1D6E440E1E6E060E1F6E000E216E79
:100FC200FD0E206E000E236EC70E226E000E256EE1
:100FD200000E246E000E276EFE0E266E0CEC1FF025
:100FE200B3D1000E1C6E010E1D6E440E1E6E060E57
:100FF2001F6E000E216EFD0E206E000E236EC80EB7
:10100200226E000E256E000E246E000E276EFE0E5E
:10101200266E0CEC1FF098D1000E1C6E010E1D6E98
:10102200380E1E6E060E1F6E000E216EFD0E206E15
:10103200000E236EC90E226E56C0D9FF57C0DAFFCA
:10104200DECF24F0DDCF25F020EE02F05650D92677
:101052005750DA22DECF26F0DDCF27F020EE04F063
:101062005650D9265750DA22DECF28F0DDCF29F0AC
:1010720020EE06F05650D9265750DA22DECF2AF05B
:10108200DDCF2BF020EE08F05650D9265750DA2249
:10109200DECF2CF0DDCF2DF0000E2F6EFE0E2E6E69
:1010A2000CEC1FF051D1000E1C6E010E1D6E0B0ECA
:1010B2001E6E060E1F6E000E216EFD0E206E000EBD
:1010C200236ECA0E226E56C0D9FF57C0DAFFDECF9A
:1010D20024F0DDCF25F020EE02F05650D9265750ED
:1010E200DA22DECF26F0DDCF27F020EE04F05650D4
:1010F200D9265750DA22DECF28F0DDCF29F020EEB4
:1011020006F05650D9265750DA22DECF2AF0DDCF2C
:101112002BF020EE08F05650D9265750DA22DECFB7
:101122002CF0DDCF2DF020EE0AF05650D926575084
:10113200DA22DECF2EF0DDCF2FF020EE0CF056506B
:10114200D9265750DA22DECF30F0DDCF31F020EE53
:101152000EF05650D9265750DA22DECF32F0DDCFCC
:1011620033F020EE10F05650D9265750DA22DECF57
:1011720034F0DDCF35F020EE12F05650D92657501C
:10118200DA22DECF36F0DDCF37F020EE14F0565003
:10119200D9265750DA22DECF38F0DDCF39F020EEF3
:1011A20016F05650D9265750DA22DECF3AF0DDCF6C
:1011B2003BF020EE18F05650D9265750DA22DECFF7
:1011C2003CF0DDCF3DF020EE1AF05650D9265750B4
:1011D200DA22DECF3EF0DDCF3FF020EE1CF056509B
:1011E200D9265750DA22DECF40F0DDCF41F020EE93
:1011F2001EF05650D9265750DA22DECF42F0DDCF0C
:1012020043F020EE20F05650D9265750DA22DECF96
:1012120044F0DDCF45F020EE22F05650D92657504B
:10122200DA22DECF46F0DDCF47F020EE24F0565032
:10123200D9265750DA22DECF48F0DDCF49F020EE32
:1012420026F05650D9265750DA22DECF4AF0DDCFAB
:101252004BF0000E4D6EFE0E4C6E0CEC1FF074D077
:10126200000E1C6E010E1D6E380E1E6E060E1F6ED7
:10127200000E216EFD0E206E000E236ECB0E226E2E
:1012820056C0D9FF57C0DAFFDECF24F0DDCF25F0FC
:1012920020EE02F05650D9265750DA22DECF26F041
:1012A200DDCF27F020EE04F05650D9265750DA222F
:1012B200DECF28F0DDCF29F020EE06F05650D926F9
:1012C2005750DA22DECF2AF0DDCF2BF020EE08F0E5
:1012D2005650D9265750DA22DECF2CF0DDCF2DF032
:1012E200000E2F6EFE0E2E6E0CEC1FF02DD054C091
:1012F20058F055C059F05950000AD8A425D058507A
:10130200C00AD8B440D5010AD8B470D5030AD8B4FB
:1013120088D5010AD8B4AED5070AD8B4DED5010AF9
:10132200D8B4F6D5030AD8B40ED6010AD8B43ED63C
:101332000F0AD8B456D6010AD8B46ED6030AD8B466
:10134200B2D6010AD8B48CD7000E546E010E556E77
:10135200120020EED5F010EEBAF0090EDBCFE3FF5B
:10136200E806FCE222EE00F010EE92F0270EDBCF50
:10137200E3FFE806FCE2000E0001D46F000ED36F1B
:10138200000E0001916F000E906F0001CD69CE69D1
:10139200000E0001C76F010EC66F000E0001CC6F78
:1013A200000ECB6F000E0001C96F000EC86FF29ED7
:1013B200000E0001D06F000ECF6F800E016E000E86
:1013C200026E000E046E000E036E000E066E100E0C
:1013D200056E76EC20F09EAAFED749EC20F00001C3
:1013E200CA6F200E0001CA19D8B413D00001CA5125
:1013F2000001D8B40ED0800E0001CF25D96E000EA8
:101402000001D021DA6ECAC0DFFF0001CF4BD02B22
:10141200E2D7800E076E000E086E13EC19F007C0BB
:10142200D1F008C0D2F00001C6050001C711D8A44E
:101432001BD0FD0E0001D1190001D211D8B40ED07B
:10144200020E2B6EF40E2A6E9C0E2C6E060E2D6E64
:10145200740E2E6E060E2F6EA0EC20F0000E000110
:10146200C76F000EC66FA4D70001C6510001C71195
:10147200D8A4CDD00001C8510001C911D8A4C7D049
:101482000001CD2908E10001CE29D8A404D0D1C0A1
:10149200CDF0D2C0CEF0FE0E0001D1190001D21162
:1014A200D8A48AD0020E2B6EF90E2A6E9C0E2C6ED8
:1014B200060E2D6E7F0E2E6E060E2F6EA0EC20F005
:1014C2007BD00001CB510001CC11D8A406D0000E74
:1014D2000001CC6F010ECB6F12D0D8900001D33532
:1014E200D96E0001D435DA6EBA0ED926000EDA2290
:1014F200D1C0DEFFD2C0DDFF0001D34BD42B0001EF
:10150200D3050001D411D8A453D7000E0001C96F2E
:10151200010EC86F4DD70001CB510001CC11D8A4E8
:1015220006D0000E0001CC6F010ECB6F12D0D89006
:101532000001D335D96E0001D435DA6EBA0ED92640
:10154200000EDA22D1C0DEFFD2C0DDFF0001D34B94
:10155200D42B020E1FD00001CB510001CC11D8A414
:1015620006D0000E0001CC6F010ECB6F12D0D890C6
:101572000001D335D96E0001D435DA6EBA0ED92600
:10158200000EDA22D1C0DEFFD2C0DDFF0001D34B54
:10159200D42B030E0001D319B4D7030E2B6E1A0EEF
:1015A2002A6E9C0E2C6E060E2D6EA30E2E6E060E4D
:1015B2002F6EA0EC20F0FCD6CDC05AF0CEC05BF06E
:1015C2005B50000AD8A4E9D75A50C00AD8B49DD7B4
:1015D200010AD8B4C0D7030AD8B497D7010AD8B43D
:1015E20094D7070AD8B46DD7010AD8B46AD7030AC8
:1015F200D8B48BD7010AD8B48ED70F0AD8B461D722
:10160200010AD8B482D7030AD8B47FD7C6D700015B
:10161200C6510001C711D8A4CBD60001C8050001EC
:10162200C911D8A4C5D6FE0E0001D1190001D211EC
:10163200D8B4EAD0030E2B6E1E0E2A6E9C0E2C6EB0
:10164200060E2D6E8A0E2E6E060E2F6EA0EC20F068
:10165200DBD036C292F037C293F034C294F035C276
:1016620095F0FAC196F0FBC197F0F9D0BAC036F204
:10167200BBC037F2BCC034F2BDC035F2BEC0FAF115
:10168200BFC0FBF1FAC132F2FBC133F2E8D0A3C210
:1016920092F0A4C293F0A1C294F0A2C295F0DFD05E
:1016A200FEC192F0FFC193F07DC094F07EC095F030
:1016B200FCC196F0FDC197F0D2D0BAC0FEF1BBC01A
:1016C200FFF1CDD0BAC001F0BBC002F0000E046E33
:1016D2003C0E036EB4EC20F001C0FCF102C0FDF13F
:1016E200BED03AC292F03BC293F038C294F039C2F3
:1016F20095F0ABC296F0ACC297F0B1D0BAC03AF254
:10170200BBC03BF2BCC038F2BDC039F2A8D0BAC0EF
:10171200ABF2BBC0ACF2A3D0000E0001D46F000E3E
:10172200D36F0001D4BF0AD00001D45106E1040EE8
:101732000001D35DD8B093D001D091D0000E00014A
:10174200D06F000ECF6F0001D0BF08D00001D05182
:101752002DE1050E0001CF5DD8B028D00001D35194
:10176200050DF3500001CF250001F76FF7C003F01C
:101772000001F851D4EC16F05A6E5B6AD890000161
:101782009035D96E00019135DA6E920ED926000E8F
:10179200DA225AC0DEFF5BC0DDFF0001904B912BC5
:1017A200D9EC20F00001CF4BD02BCDD70001D34B89
:1017B200D42B0001D4BFC2D70001D45150E1B7D716
:1017C20036C292F037C293F034C294F035C295F02B
:1017D200FAC196F0FBC197F0A3C298F0A4C299F0A7
:1017E200A1C29AF0A2C29BF03AD0030E2B6E580E01
:1017F2002A6E9C0E2C6E060E2D6EA30E2E6E060EFB
:101802002F6EA0EC20F02BD0CDC05AF0CEC05BF0F2
:101812005B50000AD8A4E9D75A50C00AD8B419D7E5
:10182200010AD8B423D7030AD8B431D7010AD8B4ED
:1018320037D7070AD8B441D7010AD8B443D7030A25
:10184200D8B44FD7010AD8B459D70F0AD8B45FD742
:10185200010AD8B4B5D7030AD8B45ED7C6D7CDC06B
:1018620054F0CEC055F0920E566E000E576EC3EC79
:1018720006F054C0C4F055C0C5F0000E0001D46F8C
:10188200000ED36F1FD00001D3510001C425D96EC1
:101892000001D4510001C521DA6EDF500001CA6F88
:1018A200ACA2FED70001D3510001C425D96E0001BC
:1018B200D4510001C521DA6EDF5068EC21F000013D
:1018C200D34BD42BC4C001F0C5C002F0A7EC1FF06B
:1018D200010E0126000E022201500001D35D0250CA
:1018E2000001D459D8A0CFD7ACA2FED7F28E9E9ACF
:1018F2001200800ECF6E000ECE6E9E90000E6C6EA9
:10190200000E6B6E6CBE06D06C5014E1040E6B5C64
:10191200D8B010D0D8906B34D96E6C34DA6E890E90
:10192200D926020EDA22000EDE6E000EDD6E6B4A42
:101932006C2AE8D70101FA4BFB2B0001EB4BEC2B95
:101942000001F54BF62B0001F34BF42B0101F9BF1B
:1019520003D00101F84BF92B0001EABF03D00001CB
:10196200E94BEA2BFAC132F2FBC133F2020133BF77
:1019720014D00201335105E13C0E0201325DD8A0C0
:101982000CD0000E0101FB6F000EFA6FFAC132F2A9
:10199200FBC133F20201344B352B020135BF10D0AB
:1019A2000201355105E13C0E0201345DD8A008D098
:1019B200000E0201356F000E346F0201364B372BD9
:1019C200020137BF0DD00201375105E1180E0201A5
:1019D200365DD8A005D0000E0201376F000E366FBB
:1019E2000101FE510001EB1905E10101FF51000166
:1019F200EC19D8A4FAD032EC12F0696E69500201E7
:101A0200A36FA46B2CEC1AF022C0A1F223C0A2F2A5
:101A1200000E0001EC6F000EEB6F0201A3510201F8
:101A2200305D02013151800A696E0201A451800ABF
:101A32006958D8B009D0000E02018A6F010E896F71
:101A4200A3C230F2A4C231F202012C510201A35D01
:101A52000201A451800A696E02012D51800A69585F
:101A6200D8B009D0000E02018C6F010E8B6FA3C299
:101A72002CF2A4C22DF20201A15102012E5D02013B
:101A82002F51800A696E0201A251800A6958D8B0AA
:101A920009D0000E02018E6F010E8D6FA1C22EF2CF
:101AA200A2C22FF202012A510201A15D0201A2513A
:101AB200800A696E02012B51800A6958D8B009D098
:101AC200000E0201906F010E8F6FA1C22AF2A2C214
:101AD2002BF2000E6C6E000E6B6E6CBE08D06C505A
:101AE20005E1050E6B5CD8B080D001D07ED0D890D5
:101AF2006B34D96E6C34DA6E890ED926020EDA2274
:101B0200DE50DE10D8B46AD06BC001F06CC002F0B7
:101B1200000E046E050E036EB4EC20F0750E012467
:101B2200D96E020E0220DA6E36C2DFFF6BC001F000
:101B32006CC002F0000E046E050E036EB4EC20F0D1
:101B4200010E0126000E0222750E0124D96E020E2C
:101B52000220DA6E34C2DFFF6BC001F06CC002F00B
:101B6200000E046E050E036EB4EC20F0020E012688
:101B7200000E0222750E0124D96E020E0220DA6EC8
:101B820032C2DFFF6BC001F06CC002F0000E046EC7
:101B9200050E036EB4EC20F0030E0126000E0222A5
:101BA200750E0124D96E020E0220DA6EA3C2DFFF87
:101BB2006BC001F06CC002F0000E046E050E036EE5
:101BC200B4EC20F0040E0126000E0222750E012450
:101BD200D96E020E0220DA6EA1C2DFFF6B4A6C2AB6
:101BE2006CBE85D76C5001E17CD70201AB5102017A
:101BF200AC11D8B45AD07B507C10D8A456D0020174
:101C02003A510201A35D0201A451800A696E0201E8
:101C12003B51800A6958D8A01DD0000E0201946F72
:101C2200000E936F000E0001F66F000EF56F000EAE
:101C32000001F26F010EF16F000E02019C6F010EA6
:101C42009B6F7AEC19F0BAEC21F0000E0101F96FEA
:101C5200000EF86F020138510201A15D0201A2518A
:101C6200800A696E02013951800A6958D8A01DD0D4
:101C7200000E0201946F000E936F000E0001F66FCA
:101C8200000EF56F000E0001F06F010EEF6F000EF7
:101C920002019A6F010E996F7AEC19F0BAEC21F0F9
:101CA200000E0001EA6F000EE96F7D500001E91994
:101CB20014E17E500001EA19D8A40FD00001F151BD
:101CC2000001F211D8B4A7EC21F00001E969EA6938
:101CD200000E0001F06F000EEF6F7D500101F81948
:101CE20014E17E500101F919D8A40FD00001EF517F
:101CF2000001F011D8B4A7EC21F00101F869F969EB
:101D0200000E0001F26F000EF16F0F0E0001F319C9
:101D12000001F411D8A40AD0000E0201966F010E40
:101D2200956F000E0001F46F000EF36F0101FC517C
:101D32000001F5190BE10101FD510001F619D8A4CA
:101D420005D0000E0201946F010E936F000E020186
:101D5200986F010E976F1200C1D1250E020156191C
:101D6200D8B436D0020120EE02F04851D9264951AA
:101D7200DA22DE50DE10D8B415D0020120EE02F0D5
:101D82004851D9264951DA2201D8A8D10500FA6E64
:101D9200DE50FD6EDE50FE6EF850FF6EFA5002010C
:101DA2005651120048C2D9FF49C2DAFFDECF4EF2C5
:101DB200DDCF4FF24EC2D9FF4FC2DAFF56C2DFFF6C
:101DC20048C2D9FF49C2DAFFDE2A000EDD2286D1DF
:101DD200000E0201506F8ED04CC2D9FF4DC2DAFF05
:101DE200DFCF4EF2020EDE26DFCF4FF2000EDD22F3
:101DF2004EC2D9FF4FC2DAFFDECF54F2DDCF55F229
:101E02000201545102015511D8A460D0950E02016D
:101E1200546F060E0201556F59D0020120EE02F0F6
:101E22004851D9264951DA22DE50DE10D8B427D0E3
:101E3200020120EE02F04851D9264951DA2201D896
:101E42001AD00500FA6EDE50FD6EDE50FE6EF850BE
:101E5200FF6EFA5054C2F6FF55C2F7FFF86A050E3C
:101E6200F76403D00800F55005D0F6CFE9FFF7CFAD
:101E7200EAFFEF5012000201544B552B27D054C2F7
:101E8200F6FF55C2F7FFF86A48C2D9FF49C2DAFF26
:101E9200DECF4EF2DDCF4FF24EC2D9FF4FC2DAFF94
:101EA200050EF76403D00800F55005D0F6CFE9FF20
:101EB200F7CFEAFFEF50DF6E0201544B552B48C2B9
:101EC200D9FF49C2DAFFDE2A000EDD2254C2F6FF34
:101ED20055C2F7FFF86A050EF76403D00800F55003
:101EE20005D0F6CFE9FFF7CFEAFFEF500009D8B4EB
:101EF200F5D093D74AC2F6FF4BC2F7FF02014A4B15
:101F02004B2B0800F5CF56F202015651000AD8B405
:101F1200F3D0640AD8B407D00D0AD8B404D01A0A90
:101F2200D8B45AD7DBD04CC2D9FF4DC2DAFFDFCFCB
:101F32004EF2020EDE26DFCF4FF2000EDD224EC23F
:101F4200D9FF4FC2DAFFDECF52F2DDCF53F20201E8
:101F520053AF08D0030E020150130201526D531FFA
:101F6200D8B0532B010E0201566F050E020156190D
:101F7200D8B416D002015651020D010EF324F66EAA
:101F8200060EF420F76E0900F5500201525D0900B9
:101F9200F55002015359D8A003D00201562BE5D7C0
:101FA20050C24EF2030E02014E17D8B434D00201D1
:101FB20020EE02F04851D9264951DA22DE50DE10D5
:101FC200D8B414D0020120EE02F04851D92649516A
:101FD200DA2201D820D00500FA6EDE50FD6EDE5006
:101FE200FE6EF850FF6EFA502D0E120048C2D9FF55
:101FF20049C2DAFFDECF4EF2DDCF4FF24EC2D9FF39
:102002004FC2DAFF2D0EDF6E48C2D9FF49C2DAFF96
:10201200DE2A000EDD2256C251F25AD0020151517F
:10202200020D010EF324F66E060EF420F76E09007F
:10203200F5CF3EF20A00F5CF3FF252C23CF253C254
:102042003DF2F3EC1BF03CC243F23DC244F2000EFF
:102052000201466F0A0E456FBAEC1DF002014351B0
:10206200300F0201566F020120EE02F04851D926CC
:102072004951DA22DE50DE10D8B415D0020120EE2A
:1020820002F04851D9264951DA2201D821D005005F
:10209200FA6EDE50FD6EDE50FE6EF850FF6EFA50A4
:1020A20002015651120048C2D9FF49C2DAFFDECFFF
:1020B2004EF2DDCF4FF24EC2D9FF4FC2DAFF56C207
:1020C200DFFF48C2D9FF49C2DAFFDE2A000EDD2255
:1020D2000201510702015129D8A4A0D74AC2F6FF32
:1020E2004BC2F7FF02014A4B4B2B0800F5CF56F2C9
:1020F20002015651D8A431D6000E0201496F000EDA
:10210200486F12009DD1250E1B18D8B433D020EE93
:1021120002F00D50D9260E50DA22DE50DE10D8B46D
:1021220013D020EE02F00D50D9260E50DA2201D83B
:1021320087D10500FA6EDE50FD6EDE50FE6EF8505D
:10214200FF6EFA501B5012000DC0D9FF0EC0DAFF0D
:10215200DECF13F0DDCF14F013C0D9FF14C0DAFFC5
:102162001BC0DFFF0DC0D9FF0EC0DAFFDE2A000E52
:10217200DD2266D1000E156E86D011C0D9FF12C0C5
:10218200DAFFDFCF13F0020EDE26DFCF14F0000EEF
:10219200DD2213C0D9FF14C0DAFFDECF19F0DDCF84
:1021A2001AF019501A10D8A45AD0950E196E060EAC
:1021B2001A6E55D020EE02F00D50D9260E50DA22BA
:1021C200DE50DE10D8B425D020EE02F00D50D92614
:1021D2000E50DA2201D81AD00500FA6EDE50FD6EDA
:1021E200DE50FE6EF850FF6EFA5019C0F6FF1AC0AC
:1021F200F7FFF86A050EF76403D00800F55005D022
:10220200F6CFE9FFF7CFEAFFEF501200194A1A2A78
:1022120026D019C0F6FF1AC0F7FFF86A0DC0D9FF21
:102222000EC0DAFFDECF13F0DDCF14F013C0D9FFFA
:1022320014C0DAFF050EF76403D00800F55005D08C
:10224200F6CFE9FFF7CFEAFFEF50DF6E194A1A2AFD
:102252000DC0D9FF0EC0DAFFDE2A000EDD2219C042
:10226200F6FF1AC0F7FFF86A050EF76403D00800FC
:10227200F55005D0F6CFE9FFF7CFEAFFEF5000099E
:10228200D8B4DED097D70FC0F6FF10C0F7FF0F4AC1
:10229200102A0800F5CF1BF01B50000AD8B4DCD07E
:1022A200640AD8B407D00D0AD8B404D01A0AD8B434
:1022B20064D7C6D011C0D9FF12C0DAFFDFCF13F046
:1022C200020EDE26DFCF14F0000EDD2213C0D9FF8E
:1022D20014C0DAFFDECF17F0DDCF18F018AE06D04B
:1022E200030E1512176C181ED8B0182A010E1B6E99
:1022F200050E1B18D8B412D01B50020D010EF32488
:10230200F66E060EF420F76E0900F550175C090010
:10231200F5501858D8A002D01B2AEAD715C013F0DE
:10232200030E1316D8B432D020EE02F00D50D92687
:102332000E50DA22DE50DE10D8B413D020EE02F0B6
:102342000D50D9260E50DA2201D820D00500FA6E9F
:10235200DE50FD6EDE50FE6EF850FF6EFA502D0E0E
:1023620012000DC0D9FF0EC0DAFFDECF13F0DDCFB1
:1023720014F013C0D9FF14C0DAFF2D0EDF6E0DC0AA
:10238200D9FF0EC0DAFFDE2A000EDD221BC016F0D6
:1023920053D01650020D010EF324F66E060EF420F1
:1023A200F76E0900F5CF03F00A00F5CF04F017C06D
:1023B20001F018C002F09FEC1EF001C008F002C04C
:1023C20009F0000E0B6E0A0E0A6E2DEC1FF008507B
:1023D200300F1B6E20EE02F00D50D9260E50DA227D
:1023E200DE50DE10D8B413D020EE02F00D50D92604
:1023F2000E50DA2201D820D00500FA6EDE50FD6EB2
:10240200DE50FE6EF850FF6EFA501B5012000DC0E7
:10241200D9FF0EC0DAFFDECF13F0DDCF14F013C008
:10242200D9FF14C0DAFF1BC0DFFF0DC0D9FF0EC0F9
:10243200DAFFDE2A000EDD2216061628D8A4A9D756
:102442000FC0F6FF10C0F7FF0F4A102A0800F5CFA1
:102452001BF01B50D8A457D6000E0E6E000E0D6E48
:102462001200C7A403D0036A032A01D0036AC5502D
:102472001F0B03100009D8A4F4D7C580C5B0FED73E
:10248200C7A403D0036A032A01D0036AC5501F0BF5
:1024920003100009D8A4F4D79A0EEBEC1DF0C7A4E0
:1024A20003D0036A032A01D0036AC5501F0B03102D
:1024B2000009D8A4F4D7010EEBEC1DF0C7A403D099
:1024C200036A032A01D0036AC5501F0B03100009D7
:1024D200D8A4F4D7C582C5B2FED7C7A403D0036A75
:1024E200032A01D0036AC5501F0B03100009D8A4A8
:1024F200F4D79B0EEBEC1DF0C7A403D0036A032AAA
:1025020001D0036AC5501F0B03100009D8A4F4D7E9
:1025120007EC21F0046EC7A403D0036A032A01D09A
:10252200036AC5501F0B03100009D8A4F4D7C58A4B
:10253200C588C5B8FED7C7A403D0036A032A01D051
:10254200036AC5501F0B03100009D8A4F4D7C58431
:10255200C5B4FED704AC85D7C7A403D0036A032A47
:1025620001D0036AC5501F0B03100009D8A4F4D789
:10257200C580C5B0FED7C7A403D0036A032A01D021
:10258200036AC5501F0B03100009D8A4F4D79A0E92
:10259200EBEC1DF0C7A403D0036A032A01D0036A3F
:1025A200C5501F0B03100009D8A4F4D7000EEBECA2
:1025B2001DF0C7A403D0036A032A01D0036AC550E1
:1025C2001F0B03100009D8A4F4D7C582C5B2FED7E9
:1025D200C7A403D0036A032A01D0036AC5501F0BA4
:1025E20003100009D8A4F4D79B0EEBEC1DF0C7A48E
:1025F20003D0036A032A01D0036AC5501F0B0310DC
:102602000009D8A4F4D707EC21F0046EC7A403D0C4
:10261200036A032A01D0036AC5501F0B0310000985
:10262200D8A4F4D7C58AC588C5B8FED7C7A403D035
:10263200036A032A01D0036AC5501F0B0310000965
:10264200D8A4F4D7C584C5B4FED704501200050E31
:1026520002016E6F090E0201706F000E02016F6FB0
:10266200B0EC21F0C0EC21F08CEC21F05EEC21F01A
:1026720084EC21F09BEC21F07BEC21F072EC21F058
:1026820043EC16F07BC063F27CC064F228C265F2B0
:1026920029C266F261EC03F0020193510201941126
:1026A200D8B409D00B0EEAEC1EF08AEC1FF0000938
:1026B200D8B416D0FAD70201975102019811D8B4B2
:1026C2000FD07BC063F27CC064F228C265F229C2DB
:1026D20066F261EC03F0000E0201986F000E976F34
:1026E200000E0201746F000E736F020174BF08D0F6
:1026F200020174516AE1040E0201735DD8B065D023
:10270200D89002017335D96E02017435DA6E890EE2
:10271200D926020EDA22DE50DE10D8B452D0000ED4
:102722000201726F000E716F020172BF08D00201C6
:10273200725147E1050E0201715DD8B042D002012B
:102742007351050DF350020171250001F76FF7C0B7
:1027520042F273C23CF274C23DF2000E02013F6FBC
:10276200050E3E6FFBEC1FF0750E02016C6F020E40
:1027720002016D6F02013C5102016C2702013D51C1
:1027820002016D230201715102016C25D96E020111
:10279200725102016D21DA6EDF500201436F0001B6
:1027A200F851C9EC17F060EC20F0F7C03EF20001DE
:1027B200F851ABEC15F00201706F0201714B722BF4
:1027C200B3D70201734B742B90D7020195510201CA
:1027D2009611D8B461D736C23CF2000E6CEC1FF0F1
:1027E20034C23CF2010E6CEC1FF0FEC13CF2020E50
:1027F2006CEC1FF07DC03CF2030E6CEC1FF0FCC1D0
:102802003CF2040E6CEC1FF03AC23CF2050E6CEC8A
:102812001FF038C23CF2060E6CEC1FF0ABC23CF269
:10282200070E6CEC1FF0000E0201966F000E956F02
:1028320033D70BC00FF0106A116A0A340F3601E366
:1028420010800F50146E0EC00FF0106A116A0D3412
:102852000F3601E310800F50136E1450D8B40BD012
:102862001350145CD8B00ED01450000813240F6E0D
:10287200180E0F6407D00CC009F00DC00AF00EC08C
:102882000BF012001350D8B40BD01450135CD8B014
:102892000ED01350000814240F6E180E0F6407D0C8
:1028A20009C009F00AC00AF00BC00BF01200060EB4
:1028B200126E0BBE128E0EBE128C0A8EFF0E0916FF
:1028C200FF0E0A16000E0B160D8EFF0E0C16FF0ED3
:1028D2000D16000E0E161350145CD8B01BD0D890F3
:1028E2000C360D360E36130614501318D8B40DD00C
:1028F200120612C00FF0070E0F16D8B406D0EFD78B
:10290200D8900B320A320932142A13501418D8B450
:102912001FD0F6D71450135CD8B01AD0D89009360D
:102922000A360B36140614501318D8B40DD01206FA
:1029320012C00FF0070E0F16D8B406D0EFD7D890FA
:102942000E320D320C32132A13501418D8A4F7D7B2
:1029520012AE0CD0FF0E091AFF0E0A1AFF0E0B1A46
:10296200010E0926000E0A22000E0B2212AC0CD018
:10297200FF0E0C1AFF0E0D1AFF0E0E1A010E0C2678
:10298200000E0D22000E0E22000E126E09500C26B1
:102992000A500D220B500E220EAE0ED0FF0E0C1A54
:1029A200FF0E0D1AFF0E0E1A010E0C26000E0D223E
:1029B200000E0E22010E126E0CC001F00DC002F0CC
:1029C2000EC003F014C004F012C005F0D5EC19F0EB
:1029D20001C009F002C00AF003C00BF01200000EA1
:1029E200D76ED668F294000E0001F66F000EF56FF6
:1029F200000E0201926F010E916F85D00201A94B68
:102A0200AA2BA9C201F0AAC202F0000E046E180E8F
:102A1200036E1CEC1DF001C0A9F202C0AAF2A9C209
:102A220036F2AAC237F290D00201A74BA82BA7C256
:102A320001F0A8C202F0000E046E3C0E036E1CEC04
:102A42001DF001C0A7F202C0A8F2A7C234F2A8C2C8
:102A520035F27AD00201A54BA62BA5C201F0A6C27F
:102A620002F0000E046E3C0E036E1CEC1DF001C061
:102A7200A5F202C0A6F2A5C232F2A6C233F232C257
:102A8200FAF133C2FBF160D02CC29FF22DC2A0F248
:102A92002AC29DF22BC29EF257D030C29FF231C29F
:102AA200A0F22EC29DF22FC29EF24ED002013A4BEC
:102AB2003B2B3AC201F03BC202F0000E046E330E11
:102AC200036E1CEC1DF001C03AF202C03BF23CD096
:102AD2000201384B392B38C201F039C202F0000E24
:102AE200046E060E036E1CEC1DF001C038F202C02B
:102AF20039F22AD00201AB4BAC2B010E0201AB170B
:102B0200000EAC1721D028C207F029C208F00850E5
:102B1200000AD8A419D00750000AD8B46FD7010A06
:102B2200D8B482D7030AD8B495D7010AD8B4ACD79F
:102B3200070AD8B4B2D7010AD8B4B8D7030AD8B4AE
:102B4200C7D7010AD8B4D6D7000E0201986F010E7A
:102B5200976F12000201406FC7A404D002013F6BBD
:102B62003F2B02D002013F6BC5501F0B02013F11E8
:102B72000009D8A4F1D7C580C5B0FED7C7A404D038
:102B820002013F6B3F2B02D002013F6BC5501F0B6E
:102B920002013F110009D8A4F1D7A00E54EC1DF098
:102BA200C7A404D002013F6B3F2B02D002013F6B4E
:102BB200C5501F0B02013F110009D8A4F1D7020131
:102BC200405154EC1DF0C7A404D002013F6B3F2BCF
:102BD20002D002013F6BC5501F0B02013F110009D9
:102BE200D8A4F1D702013E5154EC1DF0C7A404D081
:102BF20002013F6B3F2B02D002013F6BC5501F0BFE
:102C020002013F110009D8A4F1D7C582C5B2FED78F
:102C1200C7A404D002013F6B3F2B02D002013F6BDD
:102C2200C5501F0B02013F110009D8A4F1D7A10E14
:102C320054EC1DF0C7A404D002013F6B3F2B02D01D
:102C420002013F6BC5501F0B02013F110009D8A4BE
:102C5200F1D7F9EC20F00201416FC7A404D00201C0
:102C62003F6B3F2B02D002013F6BC5501F0B02018D
:102C72003F110009D8A4F1D7C584C5B4FED702011B
:102C820041511200000E0201426F000E0201466F16
:102C9200000E456F020146BF0AD00201465106E10D
:102CA200040E0201455DD8B0120001D01200000EE0
:102CB2000201486F000E476F020148BF08D00201AF
:102CC200485166E1050E0201475DD8B061D00201AC
:102CD2004551050DF350020147250201436F43C2DE
:102CE2003EF202014251ABEC15F00201446F0201C7
:102CF2004429D8B449D00201455102014611D8A451
:102D02000CD0030E0201471902014811D8A405D0C4
:102D120044C230F20201316B37D002014505020193
:102D22004611D8A40CD0030E020147190201481122
:102D3200D8A405D044C22CF202012D6B25D0020E7C
:102D42000201451902014611D8A40CD0040E020159
:102D5200471902014811D8A405D044C22EF202013B
:102D62002F6B12D0030E0201451902014611D8A49D
:102D72000BD0040E0201471902014811D8A404D055
:102D820044C22AF202012B6B0201474B482B94D713
:102D92000201454B462B020146BF89D7020146512B
:102DA20001E17ED71200056EC7A403D0046A042A8B
:102DB20001D0046AC5501F0B04100009D8A4F4D72F
:102DC200C580C5B0FED7C7A403D0046A042A01D0C7
:102DD200046AC5501F0B04100009D8A4F4D7A00E32
:102DE200EBEC1DF0C7A403D0046A042A01D0046AE4
:102DF200C5501F0B04100009D8A4F4D70550EBEC02
:102E02001DF0C7A403D0046A042A01D0046AC55085
:102E12001F0B04100009D8A4F4D70350EBEC1DF0EB
:102E2200C7A403D0046A042A01D0046AC5501F0B48
:102E320004100009D8A4F4D7C582C5B2FED7C7A42E
:102E420003D0046A042A01D0046AC5501F0B04107F
:102E52000009D8A4F4D7A10EEBEC1DF0C7A403D04F
:102E6200046A042A01D0046AC5501F0B0410000929
:102E7200D8A4F4D707EC21F0066EC7A403D0046AE5
:102E8200042A01D0046AC5501F0B04100009D8A4FB
:102E9200F4D7C584C5B4FED70650120003C005F0AE
:102EA200066A076A0234053601E3068005500F6E92
:102EB2000F50D8A409D0000E016E000E026E000E53
:102EC200036E000E046E1200170E056E01C006F0AE
:102ED20002C007F003C008F00528096E04D0D8909C
:102EE200083207320632092EFAD706500A6E028ECF
:102EF200FF0E0116FF0E0216000E031601500B6E96
:102F020002500C6E03500D6E0E6A8E0E0F5E0FAEE7
:102F120016D00F50800A8F0FD8B009D0000E016E64
:102F2200000E026E000E036E000E046E1200D890A8
:102F32000E320D320C320B320F3EF9D715D0170E6E
:102F42000F640FD0000E016E000E026E000E036EB3
:102F5200000E046E1200D8900B360C360D360E366B
:102F62000F060F50D8A4F7D70A50D8B408D00E1EB7
:102F72000D1E0C1E0B6C000E0C220D220E220BC01D
:102F820001F00CC002F00DC003F00EC004F01200FC
:102F92000201456FC7A404D00201446B442B02D046
:102FA2000201446BC5501F0B020144110009D8A451
:102FB200F1D7C580C5B0FED7C7A404D00201446BC7
:102FC200442B02D00201446BC5501F0B0201441175
:102FD2000009D8A4F1D7A00E54EC1DF0C7A404D068
:102FE2000201446B442B02D00201446BC5501F0BFB
:102FF200020144110009D8A4F1D70201455154EC51
:103002001DF0C7A404D00201446B442B02D002017C
:10301200446BC5501F0B020144110009D8A4F1D71B
:103022000201425154EC1DF0C7A404D00201446BCA
:10303200442B02D00201446BC5501F0B0201441104
:103042000009D8A4F1D70201435154EC1DF0C7A4E2
:1030520004D00201446B442B02D00201446BC550E0
:103062001F0B020144110009D8A4F1D7C584C5A4DD
:103072001200FDD71AC001F01BC002F01CC003F001
:10308200200E046E000E056E2FEC1CF021AE10D047
:103092001CAE07D0000E1A6E800E1B6EBF0E1C6E89
:1030A2001200000E1A6E000E1B6E000E1C6E120035
:1030B200215004E1150E205CD8A007D01AC01AF0E6
:1030C2001BC01BF01CC01CF012001AC001F01BC078
:1030D20002F01CC003F04FEC17F001C010F002C068
:1030E20011F003C012F004C013F06BEC1CF010C01E
:1030F2001DF011C01EF012C01FF01AC001F01BC05B
:1031020002F01CC003F01DC004F01EC005F01FC079
:1031120006F069EC1BF0D8B015D01DC009F01EC036
:103122000AF01FC00BF0000E0C6E800E0D6EBF0E6B
:103132000E6E1AEC14F009C01AF00AC01BF00BC094
:103142001CF012001DC01AF01EC01BF01FC01CF0A4
:1031520012000201506FF00E83160F0E9512959A0F
:103162009598959C8C9A8C988C9C47EC21F0F00E4B
:103172009516F00E8316030E83128C8C15EC21F03B
:103182008C9C3BEC21F0F00E8316030E83128C8C88
:1031920015EC21F08C9C3BEC21F0F00E8316030E13
:1031A20083128C8C15EC21F08C9C3BEC21F0F00E00
:1031B200831683828C8C15EC21F08C9C0F0E951259
:1031C2008AEC1FF00009D8A4FBD702015051EAECA7
:1031D2001EF08AEC1FF00009D8A4FBD7080EEAEC17
:1031E2001EF08AEC1FF00009D8A4FBD70F0EEAEC00
:1031F2001EF08AEC1FF00009D8A4FBD7010EEAECFE
:103202001EF08AEC1FF00009D8A4FBD7060EEAECE8
:103212001EF08AEC1FF00009D8A4FBD7000E88EC40
:103222001DF0120002D0074A082A07C0D9FF08C0C1
:10323200DAFF200EDE18D8B4F6D707C0D9FF08C0CF
:10324200DAFF090EDE18D8B4EED7000E0D6E000EAE
:103252000C6E000E0B6E07C0D9FF08C0DAFF2D0EF0
:10326200DE18D8A402D00B2A24D007C0D9FF08C088
:10327200DAFF2B0EDE18D8A41ED01BD00CC001F032
:103282000DC002F0000E046E0A0E036EB4EC20F0C4
:1032920007C0D9FF08C0DAFFDF50096E0A6A015081
:1032A200092602500A22D00E09240C6EFF0E0A20B3
:1032B2000D6E074A082A07C0D9FF08C0DAFFDF509F
:1032C200EAEC20F0D8B0DAD70B50D8B40DD00CC04D
:1032D20009F00DC00AF0091E0A1E094A0A2A09C08D
:1032E20007F00AC008F012000CC007F00DC008F089
:1032F200120020EEDFF010EE5FF0090EDBCFE3FFED
:10330200E806FCE2F29E36C25FF037C260F034C2D9
:1033120061F035C262F032C263F033C264F0A3C21C
:1033220065F0A4C266F0A1C267F0A2C268F0000E06
:10333200556ECB0E546E5F0E566E000E576EC3EC7A
:1033420006F054C05BF055C05CF0000E5E6E000EDD
:103352005D6E15D05D505B24D96E5E505C20DA6ED6
:10336200DF505A6EACA2FED75D505B24D96E5E5020
:103372005C20DA6EDF5068EC21F05D4A5E2A5BC0A9
:1033820001F05CC002F0A7EC1FF0010E0126000E56
:10339200022201505D5C02505E58D8A0DBD7ACA27D
:1033A200FED7F28E9E9A12000450D8B405D0015076
:1033B20002100310D8A40CD0000E016E000E026E93
:1033C200000E036E1200042AD89003320232013238
:1033D200000E0114066E000E0214076EFE0E031498
:1033E200086E065007100810D8B40CD0ECD7042A87
:1033F200010E0126000E0222000E0322D890033293
:1034020002320132000E0114066E000E0214076E23
:10341200FF0E0314086E065007100810D8B406D029
:10342200E6D70406D89001360236033602BE03D030
:10343200020E0460F6D704A0029ED8900432045013
:1034420003120550D8A4038E01C001F002C002F09D
:1034520003C003F01200040E016E0E0E026EAA0EDD
:103462001BEC1EF0050E016E000E026E000E036EC6
:10347200000E046E8CEC20F0C2EC21F0A1EC21F0E5
:103482000009D8A4FBD794EC21F001C02CF002C0B3
:103492002DF0B7EC21F0000E046EAB0E036E2CC0C3
:1034A20001F02DC002F0B1EC1BF001C009F002C026
:1034B2000AF0C4EC1FF009C024F00AC025F00BC0CA
:1034C20026F024C01AF025C01BF026C01CF03BECED
:1034D20018F01AC027F01BC028F01CC029F027C022
:1034E20001F028C002F029C003F04FEC17F001C030
:1034F2002AF002C02BF02AC022F02BC023F01200C7
:103502009C0EF66E3E0EF76E000EF86E02EE00F0A6
:1035120010EE3CF00900F5CFEEFFE550E150FAE184
:10352200580EF66E430EF76E000EF86E01EEF8F0CE
:1035320010EE08F00900F5CFEEFFE550E150FAE198
:103542005E0EF66E420EF76E000EF86E00EED5F0CD
:1035520010EE18F00900F5CFEEFFE550E150FAE168
:10356200880EF66E430EF76E000EF86E0900F5CF68
:103572007DF00900F5CF7EF002EE75F0380EEE6AAE
:10358200E806FDE100EEEDF00D0EEE6AE806FDE163
:103592007C6A7B6A7F907F92000EF86E000128EFB2
:1035A20013F00600FACF6DF0FBCF6EF0E9CF6FF0AB
:1035B200EACF70F0E1CF71F0E2CF72F0D9CF73F0C1
:1035C200DACF74F0F3CF75F0F4CF76F0F6CF77F070
:1035D200F7CF78F0F8CF79F0F5CF7AF09EA003D04C
:1035E2007AEC0CF00DD0F2A203D01FEC1BF008D045
:1035F200F2A403D0F0EC14F003D09EBAAAEC09F0C6
:103602007AC0F5FF79C0F8FF78C0F7FF77C0F6FF00
:1036120076C0F4FF75C0F3FF74C0DAFF73C0D9FF40
:1036220072C0E2FF71C0E1FF70C0EAFF6FC0E9FF44
:103632006EC0FBFF6DC0FAFF7F921100F292000E86
:103642000001F66F000EF56F02019305020194115D
:10365200D8A406D0000E0201946F000E936F32D0F0
:103662007B507C10D8A415D0000E7C6E010E7B6EB0
:10367200000E0201296F000E286F000E02019A6FE0
:10368200000E996F99C29BF29AC29CF253EC21F000
:1036920019D0070E0201281902012911D8A40AD053
:1036A200000E7C6E000E7B6E020128692969BDEC5A
:1036B20021F008D00201284B292B000E0201926F43
:1036C200000E916F000E0201986F010E976F1200AB
:1036D20003AE16D001C007F002C008F003C009F023
:1036E200071E081E091E072A000E08220922000EC4
:1036F2000724016E000E0820026E800E0920036E60
:1037020006AE16D004C007F005C008F006C009F0E6
:10371200071E081E091E072A000E08220922000E93
:103722000724046E000E0820056E800E0920066E26
:10373200000E011A000E021A800E031A000E041A5D
:10374200000E051A800E061A0450015C055002583C
:1037520006500358D8B002D0D8901200D880120078
:10376200000E066E04AE06D0036C041ED8B0042A06
:10377200010E066E02AE06D0016C021ED8B0022AFD
:10378200010E061A000E086E000E076E035004109A
:10379200D8B41CD0010E056E04D0D890033604367E
:1037A200052A04AEFAD7D890073608360350015CD2
:1037B20004500258D8A005D00350015E0450025AAA
:1037C2000780D89004320332052EEDD70650D8B4C4
:1037D20004D0076C081ED8B0082A07C001F008C040
:1037E20002F01200000E0201416F000E406F020152
:1037F2003E5102013F11D8B42CD0010E0201426F9A
:1038020006D00201D8903E373F370201422B020117
:103812003FAFF7D70201D8904037413702013E51FE
:1038220002013C5D02013F5102013D59D8A00AD07C
:1038320002013E5102013C5F02013F5102013D5B28
:10384200020140810201D8903F333E330201422FF0
:10385200E1D740C23CF241C23DF2120001500210D7
:103862000310D8A409D004C0D9FF05C0DAFF000EA6
:10387200DE6E000EDD6E120003507F0B066E076ACD
:10388200D8900636073604C0D9FF05C0DAFF06C055
:10389200DEFF07C0DDFF02AE03D0066A062A01D0B2
:1038A200066A065004C0D9FF05C0DAFFDE12000E18
:1038B200DD1204C0D9FF05C0DAFF820EDE26FF0E3C
:1038C200DD2203800382038403860388038A039C28
:1038D200029E1200000E196E8E0E186E13AE11D0DB
:1038E200131E121E111E106C000E11221222132220
:1038F200010E196E06D0D8901332123211321032E4
:10390200182A000E1014146E000E1114156E000EFB
:103912001214166EFF0E1314176E14501510161093
:103922001710D8A4E8D710C001F011C002F012C0DD
:1039320003F018C004F019C005F0D5EC19F001C06D
:1039420010F002C011F003C012F01200000E0201CA
:10395200446F000E456F000E466F000E476F020166
:103962003CA110D002014051020144270201415101
:103972000201452302014251020146230201435141
:10398200020147230201D89040374137423743377B
:103992000201D8903F333E333D333C3302013C5168
:1039A20002013D1102013E1102013F11D8A4D7D7F5
:1039B20044C23CF245C23DF246C23EF247C23FF229
:1039C200120002013E6F000EAC6E000EAB6E0201E1
:1039D2003EB1AC8802013EA302D0AC8CAB8C02019A
:1039E2003EB5AC8E02013EA702D0AB8801D0AB8AB5
:1039F20002013EB9AC849E9802013EBBAB86020135
:103A02003EAD02D09D8A01D09D9A9E9A02013EAFA0
:103A120002D09D8801D09D983CC2AFFF02013D516A
:103A2200B06EAC8AAB8E949C948EACA81200ACBEE5
:103A32001200948C1200000E066E02AE06D0016CCB
:103A4200021ED8B0022A010E066E04AE04D0036C28
:103A5200041ED8B0042A03500410D8B418D0010EA2
:103A6200056E04D0D89003360436052A04AEFAD780
:103A72000350015C04500258D8A004D00350015EE8
:103A82000450025AD89004320332052EF1D7065060
:103A9200D8B404D0016C021ED8B0022A01C001F0D1
:103AA20002C002F0120002013D6F3DC2C9FFC6BE54
:103AB2001200C6500F0B080AD8B40CD0C6500F0B18
:103AC2000B0AD8B407D0C6889EA6FED7C7B4120088
:103AD200C7501200C6500F0B080AD8B405D0C65002
:103AE2000F0B0B0AD8A41200C7B0FED7C7A404D08C
:103AF20002013C6B3C2B02D002013C6BC5501F0BF8
:103B020002013C110009D8A4F1D7C55012000201EC
:103B12003F6FF00E9516F00E831602013F5102011F
:103B22003C6F3D6B02013C8F040E02013E6F0201AD
:103B32003D353D333C3302013E2FF9D702013C5162
:103B42000F0B83128C9A8C9815EC21F08C8C15EC4F
:103B520021F08C9CF00E831602013F510F0B831251
:103B620015EC21F08C8C15EC21F08C9C0F0E95122B
:103B720012000201455102014611D8B426D0010EAD
:103B82000201476F06D00201D8904537463702013D
:103B9200472B020146AFF7D7020145510201435DAF
:103BA2000201465102014459D8A008D002014551F0
:103BB2000201435F020146510201445B0201D890B7
:103BC200463345330201472FE7D743C243F244C28B
:103BD20044F21200026E02C0C9FFC6BE1200C650F5
:103BE2000F0B080AD8B40CD0C6500F0B0B0AD8B46E
:103BF20007D0C6889EA6FED7C7B41200C7501200CF
:103C0200C6500F0B080AD8B405D0C6500F0B0B0ACA
:103C1200D8A41200C7B0FED7C7A403D0016A012AF4
:103C220001D0016AC5501F0B01100009D8A4F4D7B6
:103C3200C5501200056E000EC26E000EC06ED89006
:103C420001303C0BC26E01C003F0033AF00E0316C2
:103C5200300E031602500F0B0310C16E05C003F0A5
:103C6200D8900336D8900336380E031605C004F0F8
:103C7200043A0F0E0416070E04160550800B0410AA
:103C82000310C06E01AE03D09E9C9D8CF28CC2804C
:103C9200120048C24CF249C24DF24AC24EF24BC225
:103CA2004FF202014807000E495B4A5B4B5B4CC274
:103CB2003CF24DC23DF24EC23EF24FC23FF2E80E1E
:103CC2000201406F030E416F000E426F000E436F00
:103CD200A7EC1CF002013C5102013D1102013E1110
:103CE20002013F11D8B41200D4D757C25FF258C2B2
:103CF20060F2000E0201616F000E0201626F5B0E44
:103D020002015D6F020E02015E6F5F0E0201486FDB
:103D1200020E0201496F59C24AF25AC24BF25D0EBB
:103D220002014C6F020E02014D6FADEC0EF05FC24C
:103D3200D9FF60C2DAFF000EDF6E1200000E066EBF
:103D4200000E056E03500410D8B41CD0010E076E8D
:103D520004D0D89003360436072A04AEFAD7D89096
:103D6200053606360350015C04500258D8A005D02F
:103D72000350015E0450025A0580D8900432033287
:103D8200072EEDD705C001F006C002F012000201B5
:103D92003C6FF00E9516F00E831602013C390F0BA4
:103DA2000F0B83128C888C9A15EC21F08C8C15ECFD
:103DB20021F08C9CF00E831602013C510F0B8312F2
:103DC20015EC21F08C8C15EC21F08C9C0F0E9512C9
:103DD200120002013C6FF00E9516F00E83160201DE
:103DE2003C390F0B0F0B83128C9A8C9815EC21F037
:103DF2008C8C15EC21F08C9CF00E831602013C5148
:103E02000F0B831215EC21F08C8C15EC21F08C9C9D
:103E12000F0E951212001CC050F01DC051F0000E82
:103E2200526E000E536E200E4E6E000E4F6E500EEE
:103E32000D6E000E0E6E1EC00FF01FC010F04E0E63
:103E4200116E000E126E83EC10F050C0D9FF51C0FB
:103E5200DAFF000EDF6E12000A500B10D8B418D031
:103E6200010E0C6E04D0D8900A360B360C2A0BAE1B
:103E7200FAD70A50085C0B500958D8A004D00A504F
:103E8200085E0B50095AD8900B320A320C2EF1D729
:103E920008C008F009C009F01200FFFF000000008E
:103EA2000000000000000000000000000000000010
:103EB2000000000000000000000000000000000000
:103EC2000000FFFF0A006400FFFFFFFF28001E0042
:103ED200020004001E0002013D6F3DC2A9FF3CC268
:103EE200A8FFA69EA69CA684000EF2BE010E0201A9
:103EF2003E6FF29E550EA76EAA0EA76EA682A6B2BE
:103F0200FED702013EB102D0F29E01D0F28EA694FB
:103F120012008C8A8C9815EC21F08C8C15EC21F017
:103F220083A60AD08C9C15EC21F08C8C15EC21F028
:103F32008C9C8C9A010E12008C9C15EC21F08C8CBE
:103F420015EC21F08C9C8C9A000E120001C005F039
:103F520002C006F002D0054A062A05C0D9FF06C0F3
:103F6200DAFFDF50D8A4F7D701C003F002C004F093
:103F7200031E041E034A042A05500324016E065040
:103F82000420026E1200000E0C6E0AAE06D0096CFE
:103F92000A1ED8B00A2A010E0C6E09C001F00AC02E
:103FA20002F0036A8E0E046E0CC005F0D5EC19F017
:103FB20001C009F002C00AF003C00BF0120010D0D9
:103FC2008AEC1FF00009D8A4FBD73DC2F6FF3EC21F
:103FD200F7FF0800F550C8EC1EF002013D4B3E2BE6
:103FE2003DC2F6FF3EC2F7FF0800F5500009D8B403
:103FF2001200E6D702013C5102013E03F3CF40F228
:10400200F4CF41F202013C5102013F03F35002019D
:10401200412702013D5102013E03F35002014127B3
:1040220040C23CF241C23DF21200000E266E000E6A
:10403200276E8A0E286E430E296E1E0E246E000E07
:10404200256E260E0D6E000E0E6E1CC00FF01DC0EA
:1040520010F0240E116E000E126E83EC10F012009E
:104062000FD08AEC1FF00009D8A4FBD73DC2D9FFBC
:104072003EC2DAFFDF50C8EC1EF002013D4B3E2B80
:104082003DC2D9FF3EC2DAFFDF50D8B41200E9D7F1
:10409200F20E0001F917ABAC06D00001F991ABA00A
:1040A20002D00001F981ABA402D00001F985ABA2D4
:1040B20002D00001F987AECF01F001501200000ECC
:1040C20002013D6F000E3C6F02013DBF08D0E80EB9
:1040D20002013C5D030E02013D59D8B0120015ECFD
:1040E20021F002013C4B3D2BEFD701C007F002C08B
:1040F20008F008D007C0D9FF08C0DAFF03C0DFFF0D
:10410200074A082A0506D8A006060528F3E106286C
:10411200D8B41200EFD704D0030EE82EFED700F079
:104122000106000E025A035A045A0128F5E1022838
:10413200F3E10328F1E10428D8B41200EDD7500EC0
:104142001C6E060E1D6E2CC01EF02DC01FF02AC064
:1041520020F02BC021F02EC022F02FC023F016EC4D
:1041620020F0FF00120001500302F3CF05F0F4CF5C
:1041720006F001500402F350062602500302F350E7
:10418200062605C001F006C002F0120002013D6FD2
:104192003F0EC716000EC66E000EC56E02013D51DF
:1041A200C61202013C51C71294869488C68A120034
:1041B200000E026E000E016E02BE06D0E80E015C19
:1041C200030E0258D8B0120022EC21F0014A022A52
:1041D200F3D7036E000E026E3A0E036005D02F0E67
:1041E200036402D0010E026E02C001F0013012001F
:1041F200C6500F0B080AD8B404D0C6500F0B0B0AD6
:10420200D8B4C586C7A0FED7C9501200C6500F0B3E
:10421200080AD8B404D0C6500F0B0B0AD8B4C5860E
:10422200C7A0FED7C950120000F000F000F000F065
:1042320000F000F000F000F000F000F000F000F0FC
:10424200120000F000F000F000F000F000F000F0CA
:1042520000F000F000F000F000F01200FFFFFFFF9E
:10426200FFFFFFFFFFFFFFFFFFFFFFFFFFFFFFFF5C
:10427200FFFF0200140E0201486F000E496F000E8C
:104282004A6F000E4B6F4AEC1EF012003C0E020108
:10429200486F000E496F000E4A6F000E4B6F4AECDA
:1042A2001EF01200000ED76ED668D58CD58AD5883E
:1042B200D586F28AF294D58E12000E0ECD6E800E45
:1042C200CF6E000ECE6E9E909D80CD801200016E4C
:1042D200ACAC04D0AC900001F9B3AC8001C0ADFF2E
:1042E2001200000E02013D6F190E3C6F7C0EE2ECD3
:1042F2001CF01200000E02013C6F080EC7EC20F009
:10430200090EC86E1200050ECA6E9494800ECB6E12
:10431200800EBE6E12000E0EC16E8C8E959E280E01
:10432200AAEC18F01200C450036EC350016E03C011
:1043320002F01200F292F19CF19E9380F288120038
:10434200C2A202D0010E1200000E1200BD50FF0ADE
:104352000F0BBD6E1200FFFF28000A000300D08E73
:10436200F28EF28E12007FB212001200C2909D9C59
:1043720012000F0EBD6E1200F28AD59E12009288B4
:0A4382001200C282120002001200B5
:020000040020DA
:08000000FFFFFFFFFFFFFFFF00
:020000040030CA
:0E000000FF071F1EFF8181FF0FC00FE00F40A2
:00000001FF
